{
  "address": "0xc08BCB039cFeC310C6DEDfaa58B00acc53B3bbF0",
  "abi": [
    {
      "inputs": [
        {
          "internalType": "address",
          "name": "router",
          "type": "address"
        },
        {
          "internalType": "bytes32",
          "name": "donId",
          "type": "bytes32"
        },
        {
          "internalType": "uint64",
          "name": "subscriptionId",
          "type": "uint64"
        }
      ],
      "stateMutability": "nonpayable",
      "type": "constructor"
    },
    {
      "inputs": [],
      "name": "EmptyArgs",
      "type": "error"
    },
    {
      "inputs": [],
      "name": "EmptySource",
      "type": "error"
    },
    {
      "inputs": [],
      "name": "NoInlineSecrets",
      "type": "error"
    },
    {
      "inputs": [],
      "name": "OnlyRouterCanFulfill",
      "type": "error"
    },
    {
      "inputs": [
        {
          "internalType": "address",
          "name": "owner",
          "type": "address"
        }
      ],
      "name": "OwnableInvalidOwner",
      "type": "error"
    },
    {
      "inputs": [
        {
          "internalType": "address",
          "name": "account",
          "type": "address"
        }
      ],
      "name": "OwnableUnauthorizedAccount",
      "type": "error"
    },
    {
      "inputs": [
        {
          "internalType": "bytes32",
          "name": "requestId",
          "type": "bytes32"
        }
      ],
      "name": "UnexpectedRequestID",
      "type": "error"
    },
    {
      "anonymous": false,
      "inputs": [
        {
          "indexed": true,
          "internalType": "address",
          "name": "previousOwner",
          "type": "address"
        },
        {
          "indexed": true,
          "internalType": "address",
          "name": "newOwner",
          "type": "address"
        }
      ],
      "name": "OwnershipTransferred",
      "type": "event"
    },
    {
      "anonymous": false,
      "inputs": [
        {
          "indexed": true,
          "internalType": "bytes32",
          "name": "id",
          "type": "bytes32"
        }
      ],
      "name": "RequestFulfilled",
      "type": "event"
    },
    {
      "anonymous": false,
      "inputs": [
        {
          "indexed": true,
          "internalType": "bytes32",
          "name": "id",
          "type": "bytes32"
        }
      ],
      "name": "RequestSent",
      "type": "event"
    },
    {
      "anonymous": false,
      "inputs": [
        {
          "indexed": true,
          "internalType": "bytes32",
          "name": "requestId",
          "type": "bytes32"
        },
        {
          "indexed": false,
          "internalType": "string",
          "name": "weather",
          "type": "string"
        },
        {
          "indexed": false,
          "internalType": "bytes",
          "name": "response",
          "type": "bytes"
        },
        {
          "indexed": false,
          "internalType": "bytes",
          "name": "err",
          "type": "bytes"
        }
      ],
      "name": "Response",
      "type": "event"
    },
    {
      "anonymous": false,
      "inputs": [
        {
          "indexed": false,
          "internalType": "string",
          "name": "location",
          "type": "string"
        },
        {
          "indexed": false,
          "internalType": "uint256",
          "name": "temperature",
          "type": "uint256"
        },
        {
          "indexed": false,
          "internalType": "uint256",
          "name": "humidity",
          "type": "uint256"
        },
        {
          "indexed": false,
          "internalType": "uint256",
          "name": "precip1h",
          "type": "uint256"
        },
        {
          "indexed": false,
          "internalType": "uint256",
          "name": "precip24h",
          "type": "uint256"
        },
        {
          "indexed": false,
          "internalType": "string",
          "name": "weather",
          "type": "string"
        }
      ],
      "name": "WeatherDataReceived",
      "type": "event"
    },
    {
      "anonymous": false,
      "inputs": [
        {
          "indexed": true,
          "internalType": "bytes32",
          "name": "requestId",
          "type": "bytes32"
        },
        {
          "indexed": false,
          "internalType": "string",
          "name": "location",
          "type": "string"
        }
      ],
      "name": "WeatherRequestSent",
      "type": "event"
    },
    {
      "inputs": [],
      "name": "getPrecipitation1h",
      "outputs": [
        {
          "internalType": "uint256",
          "name": "",
          "type": "uint256"
        }
      ],
      "stateMutability": "view",
      "type": "function"
    },
    {
      "inputs": [],
      "name": "getPrecipitation24h",
      "outputs": [
        {
          "internalType": "uint256",
          "name": "",
          "type": "uint256"
        }
      ],
      "stateMutability": "view",
      "type": "function"
    },
    {
      "inputs": [],
      "name": "getTemperatureCelsius",
      "outputs": [
        {
          "internalType": "uint256",
          "name": "",
          "type": "uint256"
        }
      ],
      "stateMutability": "view",
      "type": "function"
    },
    {
      "inputs": [],
      "name": "getWeatherData",
      "outputs": [
        {
          "internalType": "string",
          "name": "_weather",
          "type": "string"
        },
        {
          "internalType": "string",
          "name": "_location",
          "type": "string"
        },
        {
          "internalType": "uint256",
          "name": "_temperature",
          "type": "uint256"
        },
        {
          "internalType": "uint256",
          "name": "_humidity",
          "type": "uint256"
        },
        {
          "internalType": "uint256",
          "name": "_precip1h",
          "type": "uint256"
        },
        {
          "internalType": "uint256",
          "name": "_precip24h",
          "type": "uint256"
        },
        {
          "internalType": "uint256",
          "name": "_lastUpdated",
          "type": "uint256"
        }
      ],
      "stateMutability": "view",
      "type": "function"
    },
    {
      "inputs": [
        {
          "internalType": "bytes32",
          "name": "requestId",
          "type": "bytes32"
        },
        {
          "internalType": "bytes",
          "name": "response",
          "type": "bytes"
        },
        {
          "internalType": "bytes",
          "name": "err",
          "type": "bytes"
        }
      ],
      "name": "handleOracleFulfillment",
      "outputs": [],
      "stateMutability": "nonpayable",
      "type": "function"
    },
    {
      "inputs": [],
      "name": "hasRain24h",
      "outputs": [
        {
          "internalType": "bool",
          "name": "",
          "type": "bool"
        }
      ],
      "stateMutability": "view",
      "type": "function"
    },
    {
      "inputs": [],
      "name": "hasRecentRain",
      "outputs": [
        {
          "internalType": "bool",
          "name": "",
          "type": "bool"
        }
      ],
      "stateMutability": "view",
      "type": "function"
    },
    {
      "inputs": [],
      "name": "humidity",
      "outputs": [
        {
          "internalType": "uint256",
          "name": "",
          "type": "uint256"
        }
      ],
      "stateMutability": "view",
      "type": "function"
    },
    {
      "inputs": [],
      "name": "isWeatherDataRecent",
      "outputs": [
        {
          "internalType": "bool",
          "name": "",
          "type": "bool"
        }
      ],
      "stateMutability": "view",
      "type": "function"
    },
    {
      "inputs": [],
      "name": "lastUpdated",
      "outputs": [
        {
          "internalType": "uint256",
          "name": "",
          "type": "uint256"
        }
      ],
      "stateMutability": "view",
      "type": "function"
    },
    {
      "inputs": [],
      "name": "location",
      "outputs": [
        {
          "internalType": "string",
          "name": "",
          "type": "string"
        }
      ],
      "stateMutability": "view",
      "type": "function"
    },
    {
      "inputs": [],
      "name": "owner",
      "outputs": [
        {
          "internalType": "address",
          "name": "",
          "type": "address"
        }
      ],
      "stateMutability": "view",
      "type": "function"
    },
    {
      "inputs": [],
      "name": "precipitation1h",
      "outputs": [
        {
          "internalType": "uint256",
          "name": "",
          "type": "uint256"
        }
      ],
      "stateMutability": "view",
      "type": "function"
    },
    {
      "inputs": [],
      "name": "precipitation24h",
      "outputs": [
        {
          "internalType": "uint256",
          "name": "",
          "type": "uint256"
        }
      ],
      "stateMutability": "view",
      "type": "function"
    },
    {
      "inputs": [],
      "name": "renounceOwnership",
      "outputs": [],
      "stateMutability": "nonpayable",
      "type": "function"
    },
    {
      "inputs": [],
      "name": "s_callbackGasLimit",
      "outputs": [
        {
          "internalType": "uint32",
          "name": "",
          "type": "uint32"
        }
      ],
      "stateMutability": "view",
      "type": "function"
    },
    {
      "inputs": [],
      "name": "s_donId",
      "outputs": [
        {
          "internalType": "bytes32",
          "name": "",
          "type": "bytes32"
        }
      ],
      "stateMutability": "view",
      "type": "function"
    },
    {
      "inputs": [],
      "name": "s_lastError",
      "outputs": [
        {
          "internalType": "bytes",
          "name": "",
          "type": "bytes"
        }
      ],
      "stateMutability": "view",
      "type": "function"
    },
    {
      "inputs": [],
      "name": "s_lastRequestId",
      "outputs": [
        {
          "internalType": "bytes32",
          "name": "",
          "type": "bytes32"
        }
      ],
      "stateMutability": "view",
      "type": "function"
    },
    {
      "inputs": [],
      "name": "s_lastResponse",
      "outputs": [
        {
          "internalType": "bytes",
          "name": "",
          "type": "bytes"
        }
      ],
      "stateMutability": "view",
      "type": "function"
    },
    {
      "inputs": [],
      "name": "s_requestConfirmations",
      "outputs": [
        {
          "internalType": "uint16",
          "name": "",
          "type": "uint16"
        }
      ],
      "stateMutability": "view",
      "type": "function"
    },
    {
      "inputs": [],
      "name": "s_subscriptionId",
      "outputs": [
        {
          "internalType": "uint64",
          "name": "",
          "type": "uint64"
        }
      ],
      "stateMutability": "view",
      "type": "function"
    },
    {
      "inputs": [
        {
          "internalType": "uint64",
          "name": "subscriptionId",
          "type": "uint64"
        },
        {
          "internalType": "string[]",
          "name": "args",
          "type": "string[]"
        }
      ],
      "name": "sendRequest",
      "outputs": [
        {
          "internalType": "bytes32",
          "name": "requestId",
          "type": "bytes32"
        }
      ],
      "stateMutability": "nonpayable",
      "type": "function"
    },
    {
      "inputs": [],
      "name": "source",
      "outputs": [
        {
          "internalType": "string",
          "name": "",
          "type": "string"
        }
      ],
      "stateMutability": "view",
      "type": "function"
    },
    {
      "inputs": [],
      "name": "temperature",
      "outputs": [
        {
          "internalType": "uint256",
          "name": "",
          "type": "uint256"
        }
      ],
      "stateMutability": "view",
      "type": "function"
    },
    {
      "inputs": [
        {
          "internalType": "address",
          "name": "newOwner",
          "type": "address"
        }
      ],
      "name": "transferOwnership",
      "outputs": [],
      "stateMutability": "nonpayable",
      "type": "function"
    },
    {
      "inputs": [
        {
          "internalType": "bytes32",
          "name": "donId",
          "type": "bytes32"
        },
        {
          "internalType": "uint64",
          "name": "subscriptionId",
          "type": "uint64"
        },
        {
          "internalType": "uint32",
          "name": "callbackGasLimit",
          "type": "uint32"
        },
        {
          "internalType": "uint16",
          "name": "requestConfirmations",
          "type": "uint16"
        }
      ],
      "name": "updateConfig",
      "outputs": [],
      "stateMutability": "nonpayable",
      "type": "function"
    },
    {
      "inputs": [],
      "name": "weather",
      "outputs": [
        {
          "internalType": "string",
          "name": "",
          "type": "string"
        }
      ],
      "stateMutability": "view",
      "type": "function"
    }
  ],
  "transactionHash": "0xb0b90910349c9981036bfc72858f7e3232ef2cdd7d3f56b8c7534303b61cfe6b",
  "args": [
    "0xD0daae2231E9CB96b94C8512223533293C3693Bf",
    "0x000066756e2d657468657265756d2d7365706f6c69612d310000000000000000",
    0
  ],
  "numDeployments": 1,
  "solcInputHash": "9dd91330175bce1702e6c1d676c07519",
  "bytecode": "0x6106c06040526105e660a08181529062001f7a60c039600d90620000249082620001dc565b503480156200003257600080fd5b5060405162002560380380620025608339810160408190526200005591620002a8565b6001600160a01b03831660805233806200008957604051631e4fbdf760e01b81526000600482015260240160405180910390fd5b6200009481620000e7565b50600191909155600280546c010000000000000000000000006001600160401b039093166001600160601b0319909116176a0493e000000000000000001761ffff60601b19169190911790555062000306565b600080546001600160a01b038381166001600160a01b0319831681178455604051919092169283917f8be0079c531659141344cd1fd0a4f28419497f9722a3daafe3b4186f6b6457e09190a35050565b634e487b7160e01b600052604160045260246000fd5b600181811c908216806200016257607f821691505b6020821081036200018357634e487b7160e01b600052602260045260246000fd5b50919050565b601f821115620001d757600081815260208120601f850160051c81016020861015620001b25750805b601f850160051c820191505b81811015620001d357828155600101620001be565b5050505b505050565b81516001600160401b03811115620001f857620001f862000137565b62000210816200020984546200014d565b8462000189565b602080601f8311600181146200024857600084156200022f5750858301515b600019600386901b1c1916600185901b178555620001d3565b600085815260208120601f198616915b82811015620002795788860151825594840194600190910190840162000258565b5085821015620002985787850151600019600388901b60f8161c191681555b5050505050600190811b01905550565b600080600060608486031215620002be57600080fd5b83516001600160a01b0381168114620002d657600080fd5b6020850151604086015191945092506001600160401b0381168114620002fb57600080fd5b809150509250925092565b608051611c5162000329600039600081816103aa0152610d240152611c516000f3fe608060405234801561001057600080fd5b50600436106101c45760003560e01c806378ed59b5116100f9578063c3dc6f4f11610097578063dfd6edd211610071578063dfd6edd214610353578063f2fde38b1461035c578063f88ea2c91461036f578063fac57b9d1461039757600080fd5b8063c3dc6f4f1461030b578063c5b4e9371461031e578063d0b06f5d1461034a57600080fd5b8063a113efa3116100d3578063a113efa3146102e8578063adccea12146102f1578063b1e21749146102fa578063bb0fb9c71461030357600080fd5b806378ed59b5146102875780638ac00021146102a25780638da5cb5b146102cd57600080fd5b8063608e772c1161016657806367e828bf1161014057806367e828bf14610265578063686b61591461026d578063715018a61461027557806378a5cdf01461027d57600080fd5b8063608e772c1461024c578063621a19411461025557806362db0c1f1461025d57600080fd5b806348a7d26d116101a257806348a7d26d146102135780634b0795a814610226578063516f279e1461022e5780636052903b1461023657600080fd5b80630ca76175146101c95780633944ea3a146101de5780633e281f3f146101fc575b600080fd5b6101dc6101d7366004611453565b61039f565b005b6101e6610423565b6040516101f39190611505565b60405180910390f35b610205600a5481565b6040519081526020016101f3565b610205610221366004611534565b6104b1565b6101e6610689565b6101e6610696565b600a5415155b60405190151581526020016101f3565b610205600b5481565b61023c6106a3565b600a54610205565b6101e66106bc565b6101e66106c9565b6101dc6106d6565b600b54151561023c565b61028f6106ea565b6040516101f397969594939291906115b9565b6002546102b5906001600160401b031681565b6040516001600160401b0390911681526020016101f3565b6000546040516001600160a01b0390911681526020016101f3565b61020560095481565b61020560085481565b61020560035481565b610205610837565b6101dc610319366004611609565b61084d565b60025461033590600160401b900463ffffffff1681565b60405163ffffffff90911681526020016101f3565b610205600c5481565b61020560015481565b6101dc61036a36600461166a565b6108aa565b60025461038490600160601b900461ffff1681565b60405161ffff90911681526020016101f3565b600b54610205565b336001600160a01b037f000000000000000000000000000000000000000000000000000000000000000016146103e85760405163c6829f8360e01b815260040160405180910390fd5b6103f38383836108ed565b60405183907f85e1543bf2f84fe80c6badbce3648c8539ad1df4d2b3d822938ca0538be727e690600090a2505050565b6004805461043090611693565b80601f016020809104026020016040519081016040528092919081815260200182805461045c90611693565b80156104a95780601f1061047e576101008083540402835291602001916104a9565b820191906000526020600020905b81548152906001019060200180831161048c57829003601f168201915b505050505081565b60006104f46040805160e0810190915280600081526020016000815260200160008152602001606081526020016060815260200160608152602001606081525090565b610591600d805461050490611693565b80601f016020809104026020016040519081016040528092919081815260200182805461053090611693565b801561057d5780601f106105525761010080835404028352916020019161057d565b820191906000526020600020905b81548152906001019060200180831161056057829003601f168201915b505050505082610a0c90919063ffffffff16565b82156105ab576105ab6105a484866116cd565b8290610a1d565b6105d26105b782610a47565b6002546001548891600160401b900463ffffffff1690610d1f565b6003556000848482816105e7576105e7611764565b90506020028101906105f9919061177a565b8686600181811061060c5761060c611764565b905060200281019061061e919061177a565b60405160200161063194939291906117c7565b60405160208183030381529060405290506003547f6d2c2dd7bf4a65e58cb874ed83b481713926a419cf33c6d9284d87593c56bc6f826040516106749190611505565b60405180910390a25050600354949350505050565b6005805461043090611693565b6007805461043090611693565b6000610e10600c54426106b69190611808565b10905090565b600d805461043090611693565b6006805461043090611693565b6106de610df1565b6106e86000610e1e565b565b606080600080600080600060066007600854600954600a54600b54600c5486805461071490611693565b80601f016020809104026020016040519081016040528092919081815260200182805461074090611693565b801561078d5780601f106107625761010080835404028352916020019161078d565b820191906000526020600020905b81548152906001019060200180831161077057829003601f168201915b505050505096508580546107a090611693565b80601f01602080910402602001604051908101604052809291908181526020018280546107cc90611693565b80156108195780601f106107ee57610100808354040283529160200191610819565b820191906000526020600020905b8154815290600101906020018083116107fc57829003601f168201915b50505050509550965096509650965096509650965090919293949596565b600060646008546108489190611831565b905090565b610855610df1565b6001939093556002805461ffff909416600160601b0261ffff60601b1963ffffffff909316600160401b026bffffffffffffffffffffffff199095166001600160401b03909416939093179390931716179055565b6108b2610df1565b6001600160a01b0381166108e157604051631e4fbdf760e01b8152600060048201526024015b60405180910390fd5b6108ea81610e1e565b50565b82600354146109125760405163d068bf5b60e01b8152600481018490526024016108d8565b600461091e8382611893565b50600661092b8382611893565b5060056109388282611893565b5042600c5561073a60085560416009556000600a819055600b55604080518082019091526007808252662ab735b737bbb760c91b60208301529061097c9082611893565b50827f160ed0aaffbef6885155188b91459cb5a97d5daadccf7561d8c46deea6641b506006600460056040516109b4939291906119cf565b60405180910390a27f9af78ab791104f1a3258e7d3c6b9eb471d1908be1770981dae3ada4a939d34f66007600854600954600a54600b5460066040516109ff96959493929190611a12565b60405180910390a1505050565b610a198260008084610e6e565b5050565b8051600003610a3f5760405163fe936cb760e01b815260040160405180910390fd5b60a090910152565b60606000610a56610100610eec565b9050610a8f6040518060400160405280600c81526020016b31b7b232a637b1b0ba34b7b760a11b81525082610f0d90919063ffffffff16565b8251610aad906002811115610aa657610aa6611a5c565b8290610f2b565b6040805180820190915260088152676c616e677561676560c01b6020820152610ad7908290610f0d565b6040830151610aee908015610aa657610aa6611a5c565b604080518082019091526006815265736f7572636560d01b6020820152610b16908290610f0d565b6060830151610b26908290610f0d565b60a08301515115610bba576040805180820190915260048152636172677360e01b6020820152610b57908290610f0d565b610b6081610f64565b60005b8360a0015151811015610bb057610ba08460a001518281518110610b8957610b89611764565b602002602001015183610f0d90919063ffffffff16565b610ba981611a72565b9050610b63565b50610bba81610f88565b60808301515115610c7e57600083602001516002811115610bdd57610bdd611a5c565b03610bfb5760405163a80d31f760e01b815260040160405180910390fd5b60408051808201909152600f81526e39b2b1b932ba39a637b1b0ba34b7b760891b6020820152610c2c908290610f0d565b610c4583602001516002811115610aa657610aa6611a5c565b6040805180820190915260078152667365637265747360c81b6020820152610c6e908290610f0d565b6080830151610c7e908290610fa6565b60c08301515115610d175760408051808201909152600981526862797465734172677360b81b6020820152610cb4908290610f0d565b610cbd81610f64565b60005b8360c0015151811015610d0d57610cfd8460c001518281518110610ce657610ce6611764565b602002602001015183610fa690919063ffffffff16565b610d0681611a72565b9050610cc0565b50610d1781610f88565b515192915050565b6000807f00000000000000000000000000000000000000000000000000000000000000006001600160a01b031663461d27628688600188886040518663ffffffff1660e01b8152600401610d77959493929190611a8b565b6020604051808303816000875af1158015610d96573d6000803e3d6000fd5b505050506040513d601f19601f82011682018060405250810190610dba9190611ad4565b60405190915081907f1131472297a800fee664d1d89cfa8f7676ff07189ecc53f80bbb5f4969099db890600090a295945050505050565b6000546001600160a01b031633146106e85760405163118cdaa760e01b81523360048201526024016108d8565b600080546001600160a01b038381166001600160a01b0319831681178455604051919092169283917f8be0079c531659141344cd1fd0a4f28419497f9722a3daafe3b4186f6b6457e09190a35050565b8051600003610e90576040516322ce3edd60e01b815260040160405180910390fd5b83836002811115610ea357610ea3611a5c565b90816002811115610eb657610eb6611a5c565b90525060408401828015610ecc57610ecc611a5c565b90818015610edc57610edc611a5c565b9052506060909301929092525050565b610ef4611361565b8051610f009083610fb3565b5060006020820152919050565b610f1a826003835161102d565b8151610f26908261114c565b505050565b8151610f389060c2611174565b50610a198282604051602001610f5091815260200190565b604051602081830303815290604052610fa6565b610f6f8160046111dd565b600181602001818151610f829190611aed565b90525050565b610f938160076111dd565b600181602001818151610f829190611808565b610f1a826002835161102d565b604080518082019091526060815260006020820152610fd3602083611b00565b15610ffb57610fe3602083611b00565b610fee906020611808565b610ff89083611aed565b91505b60208084018390526040518085526000815290818401018181101561101f57600080fd5b604052508290505b92915050565b6017816001600160401b0316116110595782516110539060e0600585901b168317611174565b50505050565b60ff816001600160401b031611611099578251611081906018611fe0600586901b1617611174565b508251611053906001600160401b03831660016111f4565b61ffff816001600160401b0316116110da5782516110c2906019611fe0600586901b1617611174565b508251611053906001600160401b03831660026111f4565b63ffffffff816001600160401b03161161111d57825161110590601a611fe0600586901b1617611174565b508251611053906001600160401b03831660046111f4565b825161113490601b611fe0600586901b1617611174565b508251611053906001600160401b03831660086111f4565b60408051808201909152606081526000602082015261116d83838451611279565b9392505050565b6040805180820190915260608152600060208201528251516000611199826001611aed565b9050846020015182106111ba576111ba856111b5836002611b14565b61134a565b84516020838201018581535080518211156111d3578181525b5093949350505050565b8151610f2690601f611fe0600585901b1617611174565b60408051808201909152606081526000602082015283515160006112188285611aed565b9050856020015181111561123557611235866111b5836002611b14565b6000600161124586610100611c0f565b61124f9190611808565b9050865182810187831982511617815250805183111561126d578281525b50959695505050505050565b604080518082019091526060815260006020820152825182111561129c57600080fd5b83515160006112ab8483611aed565b905085602001518111156112c8576112c8866111b5836002611b14565b8551805183820160200191600091808511156112e2578482525b505050602086015b602086106113225780518252611301602083611aed565b915061130e602082611aed565b905061131b602087611808565b95506112ea565b51815160001960208890036101000a0190811690199190911617905250849150509392505050565b81516113568383610fb3565b50611053838261114c565b6040518060400160405280611389604051806040016040528060608152602001600081525090565b8152602001600081525090565b634e487b7160e01b600052604160045260246000fd5b604051601f8201601f191681016001600160401b03811182821017156113d4576113d4611396565b604052919050565b60006001600160401b038311156113f5576113f5611396565b611408601f8401601f19166020016113ac565b905082815283838301111561141c57600080fd5b828260208301376000602084830101529392505050565b600082601f83011261144457600080fd5b61116d838335602085016113dc565b60008060006060848603121561146857600080fd5b8335925060208401356001600160401b038082111561148657600080fd5b61149287838801611433565b935060408601359150808211156114a857600080fd5b506114b586828701611433565b9150509250925092565b6000815180845260005b818110156114e5576020818501810151868301820152016114c9565b506000602082860101526020601f19601f83011685010191505092915050565b60208152600061116d60208301846114bf565b80356001600160401b038116811461152f57600080fd5b919050565b60008060006040848603121561154957600080fd5b61155284611518565b925060208401356001600160401b038082111561156e57600080fd5b818601915086601f83011261158257600080fd5b81358181111561159157600080fd5b8760208260051b85010111156115a657600080fd5b6020830194508093505050509250925092565b60e0815260006115cc60e083018a6114bf565b82810360208401526115de818a6114bf565b604084019890985250506060810194909452608084019290925260a083015260c09091015292915050565b6000806000806080858703121561161f57600080fd5b8435935061162f60208601611518565b9250604085013563ffffffff8116811461164857600080fd5b9150606085013561ffff8116811461165f57600080fd5b939692955090935050565b60006020828403121561167c57600080fd5b81356001600160a01b038116811461116d57600080fd5b600181811c908216806116a757607f821691505b6020821081036116c757634e487b7160e01b600052602260045260246000fd5b50919050565b60006001600160401b03808411156116e7576116e7611396565b8360051b60206116f88183016113ac565b86815291850191818101903684111561171057600080fd5b865b848110156117585780358681111561172a5760008081fd5b880136601f82011261173c5760008081fd5b61174a3682358784016113dc565b845250918301918301611712565b50979650505050505050565b634e487b7160e01b600052603260045260246000fd5b6000808335601e1984360301811261179157600080fd5b8301803591506001600160401b038211156117ab57600080fd5b6020019150368190038213156117c057600080fd5b9250929050565b838582376000848201600b60fa1b815283856001830137600093016001019283525090949350505050565b634e487b7160e01b600052601160045260246000fd5b81810381811115611027576110276117f2565b634e487b7160e01b600052601260045260246000fd5b6000826118405761184061181b565b500490565b601f821115610f2657600081815260208120601f850160051c8101602086101561186c5750805b601f850160051c820191505b8181101561188b57828155600101611878565b505050505050565b81516001600160401b038111156118ac576118ac611396565b6118c0816118ba8454611693565b84611845565b602080601f8311600181146118f557600084156118dd5750858301515b600019600386901b1c1916600185901b17855561188b565b600085815260208120601f198616915b8281101561192457888601518255948401946001909101908401611905565b50858210156119425787850151600019600388901b60f8161c191681555b5050505050600190811b01905550565b6000815461195f81611693565b80855260206001838116801561197c5760018114611996576119c4565b60ff1985168884015283151560051b8801830195506119c4565b866000528260002060005b858110156119bc5781548a82018601529083019084016119a1565b890184019650505b505050505092915050565b6060815260006119e26060830186611952565b82810360208401526119f48186611952565b90508281036040840152611a088185611952565b9695505050505050565b60c081526000611a2560c0830189611952565b87602084015286604084015285606084015284608084015282810360a0840152611a4f8185611952565b9998505050505050505050565b634e487b7160e01b600052602160045260246000fd5b600060018201611a8457611a846117f2565b5060010190565b6001600160401b038616815260a060208201526000611aad60a08301876114bf565b61ffff9590951660408301525063ffffffff92909216606083015260809091015292915050565b600060208284031215611ae657600080fd5b5051919050565b80820180821115611027576110276117f2565b600082611b0f57611b0f61181b565b500690565b8082028115828204841417611027576110276117f2565b600181815b80851115611b66578160001904821115611b4c57611b4c6117f2565b80851615611b5957918102915b93841c9390800290611b30565b509250929050565b600082611b7d57506001611027565b81611b8a57506000611027565b8160018114611ba05760028114611baa57611bc6565b6001915050611027565b60ff841115611bbb57611bbb6117f2565b50506001821b611027565b5060208310610133831016604e8410600b8410161715611be9575081810a611027565b611bf38383611b2b565b8060001904821115611c0757611c076117f2565b029392505050565b600061116d8383611b6e56fea26469706673582212208e5594c83598fc2e21de1826f05fa9c92ec2186c6e9225be6b3d983bc1a3704664736f6c634300081400336c657420636974794e616d652c20636f756e747279436f64653b2069662028747970656f6620617267735b305d203d3d3d2027737472696e672720262620617267735b305d2e7374617274735769746828275b272929207b20747279207b20636f6e73742070617273656441726773203d204a534f4e2e706172736528617267735b305d293b20636974794e616d65203d20706172736564417267735b305d3b20636f756e747279436f6465203d20706172736564417267735b315d3b207d20636174636820286529207b207468726f77204572726f722827496e76616c696420617267756d656e747320666f726d617427293b207d207d20656c7365207b20636974794e616d65203d20617267735b305d3b20636f756e747279436f6465203d20617267735b315d3b207d206966202821736563726574732e6170694b657929207b207468726f77204572726f722827416363755765617468657220415049204b6579206973206e6f7420617661696c61626c652127293b207d20636f6e7374206c6f636174696f6e55524c203d2060687474703a2f2f64617461736572766963652e61636375776561746865722e636f6d2f6c6f636174696f6e732f76312f6369746965732f7365617263683f6170696b65793d247b736563726574732e6170694b65797d26713d247b636974794e616d657d26636f756e7472793d247b636f756e747279436f64657d603b20636f6e7374206c6f636174696f6e526573706f6e7365203d2061776169742046756e6374696f6e732e6d616b654874747052657175657374287b2075726c3a206c6f636174696f6e55524c207d293b20696620286c6f636174696f6e526573706f6e73652e6572726f7229207b207468726f77204572726f7228274c6f636174696f6e20736561726368206661696c656427293b207d2069662028216c6f636174696f6e526573706f6e73652e64617461207c7c206c6f636174696f6e526573706f6e73652e646174612e6c656e677468203d3d3d203029207b207468726f77204572726f7228274e6f206c6f636174696f6e20666f756e6420666f722074686973206369747927293b207d20636f6e7374206c6f636174696f6e4b6579203d206c6f636174696f6e526573706f6e73652e646174615b305d2e4b65793b20636f6e7374207765617468657255524c203d2060687474703a2f2f64617461736572766963652e61636375776561746865722e636f6d2f63757272656e74636f6e646974696f6e732f76312f247b6c6f636174696f6e4b65797d3f6170696b65793d247b736563726574732e6170694b65797d2664657461696c733d74727565603b20636f6e73742077656174686572526573706f6e7365203d2061776169742046756e6374696f6e732e6d616b654874747052657175657374287b2075726c3a207765617468657255524c207d293b206966202877656174686572526573706f6e73652e6572726f7229207b207468726f77204572726f722827576561746865722072657175657374206661696c656427293b207d20636f6e7374207765617468657244617461203d2077656174686572526573706f6e73652e646174615b305d3b20636f6e737420726573756c74203d207b2074656d703a2077656174686572446174612e54656d70657261747572652e4d65747269632e56616c75652c2068756d69646974793a2077656174686572446174612e52656c617469766548756d69646974792c20646573633a2077656174686572446174612e57656174686572546578742c2070726563697031683a2077656174686572446174612e50726563697069746174696f6e53756d6d6172793f2e50617374486f75723f2e4d65747269633f2e56616c7565207c7c20302c207072656369703234683a2077656174686572446174612e50726563697069746174696f6e53756d6d6172793f2e506173743234486f7572733f2e4d65747269633f2e56616c7565207c7c2030207d3b2072657475726e2046756e6374696f6e732e656e636f6465537472696e67284a534f4e2e737472696e6769667928726573756c7429293b",
  "devdoc": {
    "details": "Weather consumer contract using Chainlink Functions Based on official Chainlink Functions documentation",
    "errors": {
      "OwnableInvalidOwner(address)": [
        {
          "details": "The owner is not a valid owner account. (eg. `address(0)`)"
        }
      ],
      "OwnableUnauthorizedAccount(address)": [
        {
          "details": "The caller account is not authorized to perform an operation."
        }
      ]
    },
    "kind": "dev",
    "methods": {
      "handleOracleFulfillment(bytes32,bytes,bytes)": {
        "details": "Either response or error parameter will be set, but never both.",
        "params": {
          "err": "Aggregated error either from the request's source code or from the execution pipeline.",
          "requestId": "The requestId returned by FunctionsClient.sendRequest().",
          "response": "Aggregated response from the request's source code."
        }
      },
      "owner()": {
        "details": "Returns the address of the current owner."
      },
      "renounceOwnership()": {
        "details": "Leaves the contract without owner. It will not be possible to call `onlyOwner` functions. Can only be called by the current owner. NOTE: Renouncing ownership will leave the contract without an owner, thereby disabling any functionality that is only available to the owner."
      },
      "sendRequest(uint64,string[])": {
        "params": {
          "args": "The arguments [zipcode, countryCode, units]",
          "subscriptionId": "The subscription ID"
        },
        "returns": {
          "requestId": "The ID of the request"
        }
      },
      "transferOwnership(address)": {
        "details": "Transfers ownership of the contract to a new account (`newOwner`). Can only be called by the current owner."
      }
    },
    "title": "WeatherConsumer",
    "version": 1
  },
  "userdoc": {
    "kind": "user",
    "methods": {
      "getPrecipitation1h()": {
        "notice": "Get precipitation in last hour (mm)"
      },
      "getPrecipitation24h()": {
        "notice": "Get precipitation in last 24 hours (mm)"
      },
      "getTemperatureCelsius()": {
        "notice": "Get temperature in Celsius"
      },
      "getWeatherData()": {
        "notice": "Get the latest weather data"
      },
      "handleOracleFulfillment(bytes32,bytes,bytes)": {
        "notice": "Chainlink Functions response handler called by the Functions Router during fullilment from the designated transmitter node in an OCR round."
      },
      "hasRain24h()": {
        "notice": "Check if it rained in the last 24 hours"
      },
      "hasRecentRain()": {
        "notice": "Check if it rained in the last hour"
      },
      "isWeatherDataRecent()": {
        "notice": "Check if weather data is recent"
      },
      "sendRequest(uint64,string[])": {
        "notice": "Send a request for weather data"
      },
      "updateConfig(bytes32,uint64,uint32,uint16)": {
        "notice": "Update Chainlink Functions configuration"
      }
    },
    "version": 1
  },
  "storageLayout": {
    "storage": [
      {
        "astId": 2076,
        "contract": "contracts/WeatherConsumer.sol:WeatherConsumer",
        "label": "_owner",
        "offset": 0,
        "slot": "0",
        "type": "t_address"
      },
      {
        "astId": 2261,
        "contract": "contracts/WeatherConsumer.sol:WeatherConsumer",
        "label": "s_donId",
        "offset": 0,
        "slot": "1",
        "type": "t_bytes32"
      },
      {
        "astId": 2263,
        "contract": "contracts/WeatherConsumer.sol:WeatherConsumer",
        "label": "s_subscriptionId",
        "offset": 0,
        "slot": "2",
        "type": "t_uint64"
      },
      {
        "astId": 2265,
        "contract": "contracts/WeatherConsumer.sol:WeatherConsumer",
        "label": "s_callbackGasLimit",
        "offset": 8,
        "slot": "2",
        "type": "t_uint32"
      },
      {
        "astId": 2267,
        "contract": "contracts/WeatherConsumer.sol:WeatherConsumer",
        "label": "s_requestConfirmations",
        "offset": 12,
        "slot": "2",
        "type": "t_uint16"
      },
      {
        "astId": 2269,
        "contract": "contracts/WeatherConsumer.sol:WeatherConsumer",
        "label": "s_lastRequestId",
        "offset": 0,
        "slot": "3",
        "type": "t_bytes32"
      },
      {
        "astId": 2271,
        "contract": "contracts/WeatherConsumer.sol:WeatherConsumer",
        "label": "s_lastResponse",
        "offset": 0,
        "slot": "4",
        "type": "t_bytes_storage"
      },
      {
        "astId": 2273,
        "contract": "contracts/WeatherConsumer.sol:WeatherConsumer",
        "label": "s_lastError",
        "offset": 0,
        "slot": "5",
        "type": "t_bytes_storage"
      },
      {
        "astId": 2275,
        "contract": "contracts/WeatherConsumer.sol:WeatherConsumer",
        "label": "weather",
        "offset": 0,
        "slot": "6",
        "type": "t_string_storage"
      },
      {
        "astId": 2277,
        "contract": "contracts/WeatherConsumer.sol:WeatherConsumer",
        "label": "location",
        "offset": 0,
        "slot": "7",
        "type": "t_string_storage"
      },
      {
        "astId": 2279,
        "contract": "contracts/WeatherConsumer.sol:WeatherConsumer",
        "label": "temperature",
        "offset": 0,
        "slot": "8",
        "type": "t_uint256"
      },
      {
        "astId": 2281,
        "contract": "contracts/WeatherConsumer.sol:WeatherConsumer",
        "label": "humidity",
        "offset": 0,
        "slot": "9",
        "type": "t_uint256"
      },
      {
        "astId": 2283,
        "contract": "contracts/WeatherConsumer.sol:WeatherConsumer",
        "label": "precipitation1h",
        "offset": 0,
        "slot": "10",
        "type": "t_uint256"
      },
      {
        "astId": 2285,
        "contract": "contracts/WeatherConsumer.sol:WeatherConsumer",
        "label": "precipitation24h",
        "offset": 0,
        "slot": "11",
        "type": "t_uint256"
      },
      {
        "astId": 2287,
        "contract": "contracts/WeatherConsumer.sol:WeatherConsumer",
        "label": "lastUpdated",
        "offset": 0,
        "slot": "12",
        "type": "t_uint256"
      },
      {
        "astId": 2626,
        "contract": "contracts/WeatherConsumer.sol:WeatherConsumer",
        "label": "source",
        "offset": 0,
        "slot": "13",
        "type": "t_string_storage"
      }
    ],
    "types": {
      "t_address": {
        "encoding": "inplace",
        "label": "address",
        "numberOfBytes": "20"
      },
      "t_bytes32": {
        "encoding": "inplace",
        "label": "bytes32",
        "numberOfBytes": "32"
      },
      "t_bytes_storage": {
        "encoding": "bytes",
        "label": "bytes",
        "numberOfBytes": "32"
      },
      "t_string_storage": {
        "encoding": "bytes",
        "label": "string",
        "numberOfBytes": "32"
      },
      "t_uint16": {
        "encoding": "inplace",
        "label": "uint16",
        "numberOfBytes": "2"
      },
      "t_uint256": {
        "encoding": "inplace",
        "label": "uint256",
        "numberOfBytes": "32"
      },
      "t_uint32": {
        "encoding": "inplace",
        "label": "uint32",
        "numberOfBytes": "4"
      },
      "t_uint64": {
        "encoding": "inplace",
        "label": "uint64",
        "numberOfBytes": "8"
      }
    }
  }
}